:020000040000fa
:080000000002040000000000f2
:020000040000fa
:04000800aa03000047
:020000040000fa
:04000c00aa03000043
:020000040000fa
:04001000aa0300003f
:020000040000fa
:04001400aa0300003b
:020000040000fa
:04001800aa03000037
:020000040000fa
:04001c00aa03000033
:020000040000fa
:04002000aa0300002f
:020000040000fa
:04002400aa0300002b
:020000040000fa
:04002800aa03000027
:020000040000fa
:04002c00aa03000023
:020000040000fa
:04003000aa0300001f
:020000040000fa
:040034003003000095
:020000040000fa
:04003800aa03000017
:020000040000fa
:04003c00aa03000013
:020000040000fa
:04004000aa0300000f
:020000040000fa
:04004400aa0300000b
:020000040000fa
:04004800aa03000007
:020000040000fa
:04004c00aa03000003
:020000040000fa
:04005000aa030000ff
:020000040000fa
:04005400aa030000fb
:020000040000fa
:04005800aa030000f7
:020000040000fa
:04005c00aa030000f3
:020000040000fa
:04006000aa030000ef
:020000040000fa
:04006400aa030000eb
:020000040000fa
:04006800aa030000e7
:020000040000fa
:04006c00aa030000e3
:020000040000fa
:04007000aa030000df
:020000040000fa
:04007400aa030000db
:020000040000fa
:04007800aa030000d7
:020000040000fa
:04007c00aa030000d3
:020000040000fa
:04008000aa030000cf
:020000040000fa
:04008400aa030000cb
:020000040000fa
:04008800aa030000c7
:020000040000fa
:04008c00aa030000c3
:020000040000fa
:04009000aa030000bf
:020000040000fa
:04009400aa030000bb
:020000040000fa
:04009800aa030000b7
:020000040000fa
:04009c00aa030000b3
:020000040000fa
:0400a000aa030000af
:020000040000fa
:0400a400aa030000ab
:020000040000fa
:0400a800aa030000a7
:020000040000fa
:0400ac00aa030000a3
:020000040000fa
:0400b000aa0300009f
:020000040000fa
:0400b400aa0300009b
:020000040000fa
:0400b800aa03000097
:020000040000fa
:0400bc00aa03000093
:020000040000fa
:0400c000aa0300008f
:020000040000fa
:0400c400aa0300008b
:020000040000fa
:0400c800aa03000087
:020000040000fa
:0400cc00aa03000083
:020000040000fa
:0400d000aa0300007f
:020000040000fa
:0400d400aa0300007b
:020000040000fa
:0400d800aa03000077
:020000040000fa
:0400dc00aa03000073
:020000040000fa
:0400e000aa0300006f
:020000040000fa
:0400e400aa0300006b
:020000040000fa
:0400e800aa03000067
:020000040000fa
:0400ec00aa03000063
:020000040000fa
:0400f000aa0300005f
:020000040000fa
:0400f400aa0300005b
:020000040000fa
:0400f800aa03000057
:020000040000fa
:0400fc00aa03000053
:020000040000fa
:04010000aa0300004e
:020000040000fa
:04010400aa0300004a
:020000040000fa
:04010800aa03000046
:020000040000fa
:04010c00aa03000042
:020000040000fa
:04011000aa0300003e
:020000040000fa
:04011400aa0300003a
:020000040000fa
:04011800aa03000036
:020000040000fa
:04011c00aa03000032
:020000040000fa
:04012000aa0300002e
:020000040000fa
:04012400aa0300002a
:020000040000fa
:04012800aa03000026
:020000040000fa
:04012c00aa03000022
:020000040000fa
:04013000aa0300001e
:020000040000fa
:04013400aa0300001a
:020000040000fa
:04013800aa03000016
:020000040000fa
:04013c00aa03000012
:020000040000fa
:04014000aa0300000e
:020000040000fa
:04014400aa0300000a
:020000040000fa
:04014800aa03000006
:020000040000fa
:04014c00aa03000002
:020000040000fa
:04015000aa030000fe
:020000040000fa
:04015400aa030000fa
:020000040000fa
:04015800aa030000f6
:020000040000fa
:04015c00aa030000f2
:020000040000fa
:04016000aa030000ee
:020000040000fa
:04016400aa030000ea
:020000040000fa
:04016800aa030000e6
:020000040000fa
:04016c00aa030000e2
:020000040000fa
:04017000aa030000de
:020000040000fa
:04017400aa030000da
:020000040000fa
:04017800aa030000d6
:020000040000fa
:04017c00aa030000d2
:020000040000fa
:04018000aa030000ce
:020000040000fa
:04018400aa030000ca
:020000040000fa
:04018800aa030000c6
:020000040000fa
:04018c00aa030000c2
:020000040000fa
:04019000aa030000be
:020000040000fa
:04019400aa030000ba
:020000040000fa
:04019800aa030000b6
:020000040000fa
:04019c00aa030000b2
:020000040000fa
:0401a000aa030000ae
:020000040000fa
:0401a400aa030000aa
:020000040000fa
:0401a800aa030000a6
:020000040000fa
:0401ac00aa030000a2
:020000040000fa
:0401b000aa0300009e
:020000040000fa
:0401b400aa0300009a
:020000040000fa
:0401b800040300003c
:020000040000fa
:04020800aa03000045
:020000040000fa
:04020c00aa03000041
:020000040000fa
:04021000aa0300003d
:020000040000fa
:04021400aa03000039
:020000040000fa
:04021800aa03000035
:020000040000fa
:04021c00aa03000031
:020000040000fa
:04022000aa0300002d
:020000040000fa
:04022400aa03000029
:020000040000fa
:04022800aa03000025
:020000040000fa
:04022c00aa03000021
:020000040000fa
:04023000aa0300001d
:020000040000fa
:04023400aa03000019
:020000040000fa
:04023800aa03000015
:020000040000fa
:04023c00aa03000011
:020000040000fa
:04024000aa0300000d
:020000040000fa
:04024400aa03000009
:020000040000fa
:04024800aa03000005
:020000040000fa
:04024c00aa03000001
:020000040000fa
:04025000aa030000fd
:020000040000fa
:04025400aa030000f9
:020000040000fa
:04025800aa030000f5
:020000040000fa
:04025c00aa030000f1
:020000040000fa
:04026000aa030000ed
:020000040000fa
:04026400aa030000e9
:020000040000fa
:04026800aa030000e5
:020000040000fa
:04026c00aa030000e1
:020000040000fa
:04027000aa030000dd
:020000040000fa
:04027400aa030000d9
:020000040000fa
:04027800aa030000d5
:020000040000fa
:04027c00aa030000d1
:020000040000fa
:04028000aa030000cd
:020000040000fa
:04028400aa030000c9
:020000040000fa
:04028800aa030000c5
:020000040000fa
:04028c00aa030000c1
:020000040000fa
:04029000aa030000bd
:020000040000fa
:04029400aa030000b9
:020000040000fa
:04029800aa030000b5
:020000040000fa
:04029c00aa030000b1
:020000040000fa
:0402a000aa030000ad
:020000040000fa
:0402a400aa030000a9
:020000040000fa
:0402a800aa030000a5
:020000040000fa
:0402ac00aa030000a1
:020000040000fa
:0402b000aa0300009d
:020000040000fa
:0402b400aa03000099
:020000040000fa
:0402b800aa03000095
:020000040000fa
:0402bc00aa03000091
:020000040000fa
:0402c000aa0300008d
:020000040000fa
:0402c400aa03000089
:020000040000fa
:0402c800aa03000085
:020000040000fa
:0402cc00aa03000081
:020000040000fa
:0402d000aa0300007d
:020000040000fa
:0402d400aa03000079
:020000040000fa
:0402d800aa03000075
:020000040000fa
:0402dc00aa03000071
:020000040000fa
:0402e000aa0300006d
:020000040000fa
:0402e400aa03000069
:020000040000fa
:0402e800aa03000065
:020000040000fa
:0402ec00aa03000061
:020000040000fa
:0402f000aa0300005d
:020000040000fa
:0402f400aa03000059
:020000040000fa
:0402f800aa03000055
:020000040000fa
:0402fc00aa03000051
:020000040000fa
:04030000aa0300004c
:020000040000fa
:04030400aa03000048
:020000040000fa
:04030800aa03000044
:020000040000fa
:04030c00aa03000040
:020000040000fa
:04031000aa0300003c
:020000040000fa
:04031400aa03000038
:020000040000fa
:04031800aa03000034
:020000040000fa
:04031c00aa03000030
:020000040000fa
:04032000aa0300002c
:020000040000fa
:04032400aa03000028
:020000040000fa
:04032800aa03000024
:020000040000fa
:04032c00aa03000020
:020000040000fa
:04033000aa0300001c
:020000040000fa
:04033400aa03000018
:020000040000fa
:04033800aa03000014
:020000040000fa
:04033c00aa03000010
:020000040000fa
:04034000aa0300000c
:020000040000fa
:04034400aa03000008
:020000040000fa
:04034800aa03000004
:020000040000fa
:04034c00aa03000000
:020000040000fa
:04035000aa030000fc
:020000040000fa
:04035400aa030000f8
:020000040000fa
:04035800aa030000f4
:020000040000fa
:04035c00aa030000f0
:020000040000fa
:04036000aa030000ec
:020000040000fa
:04036400aa030000e8
:020000040000fa
:04036800aa030000e4
:020000040000fa
:04036c00aa030000e0
:020000040000fa
:04037000aa030000dc
:020000040000fa
:04037400aa030000d8
:020000040000fa
:04037800aa030000d4
:020000040000fa
:04037c00aa030000d0
:020000040000fa
:04038000aa030000cc
:020000040000fa
:04038400aa030000c8
:020000040000fa
:04038800aa030000c4
:020000040000fa
:04038c00aa030000c0
:020000040000fa
:04039000aa030000bc
:020000040000fa
:04039400aa030000b8
:020000040000fa
:04039800aa030000b4
:020000040000fa
:04039c00aa030000b0
:020000040000fa
:0403a000aa030000ac
:020000040000fa
:0403a400aa030000a8
:020000040000fa
:0403a800aa030000a4
:020000040000fa
:0403ac00aa030000a0
:020000040000fa
:0403b000aa0300009c
:020000040000fa
:0403b400aa03000098
:020000040000fa
:0403b800aa03000094
:020000040000fa
:10040000afb220008efe24000e0188000000000024
:10041000000020000000e000020032000001200087
:100420002002880014000700cc0007000000e00054
:1004300003003a0020cf2a0001002000020037000c
:100440000000200001002000810f70000100320038
:1004500014000700000020000000e000020032004d
:100460000000020000000000eac2020000000000dc
:100470000040da000000fe004440a900c03f200018
:100480000000e000030032000020200090018800fe
:100490004440a800000006008a1f78008b1f7800e7
:1004a00000000600a1028800800478000000eb0034
:1004b0001f003700e284440054a0b4009905ba003c
:1004c000e284440054a0b4009906ba00e2844400d7
:1004d00054a0b4000006eb00476fde00fd07b20039
:1004e000ae018800636ce10003003a00eaff0700f8
:1004f0000000eb000e003700606ce10008003a00dd
:10050000004deb000a05e800020039003420ec0041
:100510000af0a0008b05e900f9ff3e000400370057
:100520006168e100010032000086eb000b0007006b
:1005300019c7ba001905ba000e04e00003003a001a
:100540000a00e000dbff3a0000000600fe07b200f0
:10055000ae0288008a047800f5ff37000cd0a300b3
:10056000e20f4d001c00390089027800354dba00b9
:100570000a05e800020039003420ec000af0a0006f
:100580008b05e9000f003200254dba000a05e8008e
:10059000020039003420ec000af0a0008b05e900cd
:1005a000080032000c00e0000600320015cdba0051
:1005b0000a05e800020039003420ec000af0a0002f
:1005c0008b05e9008984e80054a0b4000b00e0002a
:1005d000e2ff3a00000006009902ba00055d7800cb
:1005e0008b05e900f7ff3200c82ade00055d7800c0
:1005f0008b05e900f3ff32000c00e000f1ff320050
:1006000019ddba00eeff37003200f8003400f800c0
:10061000881f780018002000a8018800082020000a
:10062000980188004f0478000a87ab00040032006c
:100630000428ef000a28ef000a87a9000400370009
:100640000a67ab00020032000a28ec000a67a90022
:100650009080a9003400f9003200f9000040060043
:10066000809fbe00829fbe00849fbe003200f800c3
:100670003400f80010002000a001880000202000b5
:100680009001880070408000f1f72700810f500032
:1006900011003e00924080008001eb000202410008
:1006a00083824900821b2a000310200004014100bc
:1006b000858149009101800002f0a4008381d2006d
:1006c0009301880012017800910188000001410027
:1006d00072408800010037000e28ef007040800053
:1006e0004600de000000d000818e2800e100780086
:1006f0006140880080408000017a2000810f500016
:1007000003003e000000e80080408800070037003a
:100710001208ec0090408800d1592000810f500051
:1007200001003a001228ef001028ef00604080001e
:100730004800dd00501688008460a9003400f900ec
:100740003200f9004f02be004f01be004f00be0054
:10075000004006000040da000000fe000000050036
:1007600003f0a200889fbe008a9fbe008c1f780005
:1007700000010700070133006450e1004f00320020
:100780006420e1005200320003826c0007003b004d
:100790000905d0000306d000820f54000c065d004e
:1007a0000200390002003200890178000306780057
:1007b0008582550004003d000003fd008103fd001b
:1007c0008502ea008b854200840f720002003b0024
:1007d00060001000e08018006011b8000005eb0018
:1007e0007a28e1000a00390006007800c75ddd00c4
:1007f000f707b200878075002d00370082817100f5
:100800000a017800610560008180d1000080d3007a
:100810008502e900f9ff3b00060440008784480098
:1008200002003b0060041400e0841c000988a3005f
:10083000070032008a8171008281710061016400c9
:100840008904d1000884d3008b05e8001700370025
:100850000978a30013003a000b00e00013003400f5
:100860008b05e9000804440089844c000a447400a4
:100870000978a3000d003a000b00e00007003400e7
:100880008b05e9000804440089844c0001003a000b
:100890000b0020000978a300f7ff32000001eb00f5
:1008a00002003700828171000a017800760007009b
:1008b0000cf0a70001f0a000bf0037006420e100a9
:1008c00002003a00838f6c00bf0033000801be00b5
:1008d0000200be00b80037000081eb00f1003700d5
:1008e000889fbe008a9fbe008c1f7800a100070071
:1008f000a800330003866c006450e1002e00320033
:100900006420e100330032006150e1002f0032002a
:100910006120e1003100320085855500eb07b00011
:1009200009002000080420000500370008044400e6
:1009300089844c000a0031000603430087834b0082
:100940000001530081815b00f8ff33000203be0009
:100950000800a0000804440089844c00f6ff390018
:10096000c639dd008301730001003200130020004e
:100970008904d1000884d3000998a300050032003f
:100980000800a7000300a0008904d1000884d30058
:100990008b05e8008904d1000884d3000001eb0036
:1009a0000281d2003800070001f0a1000cf0a7007e
:1009b00001f0a000800037006420e10082003200d6
:1009c0000801be000200be00f7ff37006120e10011
:1009d0007d0032006000b800f3ff37000000200007
:1009e00001f82700f0ff3700f4ff2f001b0137004c
:1009f0000001be004a0007000470a70003f0a10038
:100a00006509b100160032000d0035006828e100cc
:100a100006003500f0ff2f00f1ff27000300e00083
:100a200013003b000100280000000500000040000a
:100a3000818048008502e900fcff3a000800370089
:100a4000f88f420002003c008000eb00000005002f
:100a50008100d1000080d3008502e800fcff3a004d
:100a60000300e00002003b0060001000e08018007e
:100a7000000006004f89de00820178001401370073
:100a80006011b8002201370081002000618055000c
:100a90000b003d000b00200061fe2f000100e10073
:100aa0001d00340082817100610164008904d1005d
:100ab0000884d3000000e800faff3a00710020002b
:100ac0006100640003007000020060000900320051
:100ad00061044400e0844c000988a5000500320050
:100ae0008b05e8006808e10002003a008904d100a3
:100af0000884d300f20f20000258e10005003d00f9
:100b0000c75ddd00f907b200898075000800780034
:100b1000000006000bf827008b007800000005009d
:100b2000c70ade00f107b200f50fb200080032007c
:100b3000e1cf4200020032000170a0002400050055
:100b4000810f700001003200040805004400050018
:100b5000810f700002003a00140005008502e900d0
:100b60000000400081c04800fcff3b000170a00075
:100b7000240005000004be00e9ff07000003be00da
:100b80000405be000200be00e5ff0700844f7500ab
:100b9000000006000200be006450e10005003600bf
:100ba0006420e100020036000968a30001003a0059
:100bb0000800be000160a0004f0678004f05be008f
:100bc0004f04be0000000600f0ff2f00f1ff2700d9
:100bd000f9ff3700889fbe008a9fbe008c1f7800f7
:100be000e4ff0700ebff330003866c006450e10074
:100bf000240032006420e100270032006150e1004f
:100c0000220032006120e100210032008b85420089
:100c1000eb07b1000134b800003ab8000804420004
:100c200089844a00013ab8000030b800888040004a
:100c300009014a00040033000000400081804800a0
:100c4000020149008b05e900c909dd00830170003c
:100c50000100320013002000c814de004814dd003b
:100c60004709de001200b200c808de0008847000e8
:100c700085ff070001f0a1000cf0a70001f0a00023
:100c8000cdff37006120e100cfff32000801be0038
:100c90000200be00f7ff37006150e100fcff3a00a0
:100ca000c9ff3700889fbe008a9fbe008c9fbe0090
:100cb000820578000004be0099ff07000800be000e
:100cc0006420e1000700390002003a00f1ff27002c
:100cd000f0ff2f000160a00012022000c240880037
:100ce000550037006120e10003003a000b00a70027
:100cf00001f823005000370001f0a100020021009c
:100d000093642400700007000800be000400350052
:100d1000b2fd2000930c2400ac0007000004be00cc
:100d20000005eb000b00a6004f0dde0001f0a10056
:100d30000004be0032982f0023ea2300a5ff07001d
:100d40000001eb0003f023000b00a70003f82300d1
:100d500084fe070026ff07000000a7000a00a2008b
:100d600044ff07000b00e0000300320002002000f7
:100d700003f023007afe070001f0a2000006be0087
:100d8000020020009304240092ff07000801be0027
:100d900074fe0700809fbe000c00be0022a22a0045
:100da000d3a723008bff07004f01be006dfe070095
:100db0000004be0001f0a1000200200003982300ff
:100dc000410007000800be00190035000001be0008
:100dd00080ff07000006be00b2c52900e3622300c1
:100de0007cff070022222b00f3942b005dfe0700fe
:100df0000c01be0077ff0700e273280083c02300c8
:100e000058fe07000c01be0072ff070042aa2a002c
:100e1000a3e22b0053fe07000c01be006dff07008c
:100e20000801be006bff07000801be004dfe070071
:100e30000a00a70001f0a2004f06be004f05be0049
:100e40004f04be00000006000001eb0095ff3700d4
:100e5000af0007000400be0000000600889fbe002f
:100e60008a9fbe00841f780042ff07004f00780071
:100e700011003300f0ff2f00838f6c0006003b0051
:100e8000040565000a00a7000800370009f0a60065
:100e90001000200008003700820f5400838f5c0090
:100ea000030039001000200001003e000000200077
:100eb00009f0a7000000ea004f05be004f04be0085
:100ec0000000e0000000060014002000e3ff3700ef
:100ed000881f7800030478000300e00007003d004d
:100ee00060001000e080180060011900e081190026
:100ef00002003b0001f02d00030037000400070052
:100f000008f0a70001f0a0004f04780000000600e0
:100f1000889fbe008a9fbe0000827000040271009c
:100f200004827100260032000004be000200be00f0
:100f30006011b8006b092000950220000182cf00eb
:100f40000a0039000541b1000082cf0007003900d6
:100f50000541b1000982cf00040039000541b1000c
:100f60000882cf00010039000541b100054252005e
:100f7000120032000a003b008281710061016400ae
:100f80008100d1000080d3008984d3000884d3007d
:100f90008b05e8000442e800f7ff3a00070037003d
:100fa0000804440089844c00000048008180480007
:100fb0008b05e9000442e900f9ff3a00b2fe0700a0
:100fc0004f05be004f04be000000060004002000d4
:100fd00000003700889fbe008a9fbe008c1f7800eb
:100fe0004f26dd00e3fe0700eafe33006120e1004a
:100ff000430032006250e10041003e003e003900f3
:101000006420e1003c003200058255000f003b00e7
:101010000402e80038003a00800f5300818f5b0023
:10102000350034000800be0003f0a10001f0a60066
:1010300003f0a0000cf0a700cafd0700defe370099
:101040000603430087834b000c464600000553000f
:1010500081855b00020033000a03be000c00a00083
:101060000402e900f6ff3b00850578000602430014
:1010700087824b0004003a006000b80009f0a70026
:1010800001f0a000ccfe37000002520081825a001d
:101090000704e000040033000603430087834b008d
:1010a0008b05e900faff3700090578000604be0049
:1010b0000203be006011b80073fe0700e00f52008b
:1010c000e08f5a000700350002003c000c08a30026
:1010d000040032000601be0003f0a0000cf0a700df
:1010e000a0fd07000a85680001f0a1000af0a70032
:1010f00001f0a000b0fe37000800be00aefe3700d1
:10110000100220000cf0a600c0408800aefe3700a0
:101110006022b800060220000000d0008180d200ca
:101120000482d2008582d2000000a0000202520098
:1011300083825a00030031000202420083824a0087
:101140000000a1000603e900f3ff3a0000000600da
:101150008000eb00305988004159880011c0b3006d
:1011600040b22000014878000000060040b2200094
:101170001004e00002003a0010002000f4ff070015
:10118000d2e62400631c24003059800041598000bd
:101190000900070092032300030020000001410022
:1011a0008181490032598800435988000300780042
:1011b00000f0a10000000600020ab900001bb900ff
:1011c0000200b800810042008100430000000600d8
:020000040000fa
:1011d0007f00000081000000820000008400000009
:1011e0008500000087000000880000008a000000e1
:1011f0008b0000008d0000008f00000090000000b8
:10120000920000009300000095000000960000008e
:1012100098000000990000009b0000009c00000066
:101220009e0000009f000000a1000000a30000003d
:10123000a4000000a6000000a7000000a800000015
:10124000aa000000ab000000ad000000ae000000ee
:10125000b0000000b1000000b3000000b4000000c6
:10126000b5000000b7000000b8000000ba000000a0
:10127000bb000000bc000000be000000bf0000007a
:10128000c1000000c2000000c3000000c400000054
:10129000c6000000c7000000c8000000ca0000002f
:1012a000cb000000cc000000cd000000cf0000000b
:1012b000d0000000d1000000d2000000d3000000e8
:1012c000d5000000d6000000d7000000d8000000c4
:1012d000d9000000da000000db000000dc000000a4
:1012e000dd000000de000000df000000e000000084
:1012f000e1000000e2000000e3000000e400000064
:10130000e5000000e6000000e7000000e800000043
:10131000e9000000ea000000eb000000eb00000024
:10132000ec000000ed000000ee000000ef00000007
:10133000ef000000f0000000f1000000f1000000ec
:10134000f2000000f3000000f3000000f4000000d1
:10135000f5000000f5000000f6000000f6000000b7
:10136000f7000000f7000000f8000000f80000009f
:10137000f9000000f9000000fa000000fa00000087
:10138000fa000000fb000000fb000000fb00000072
:10139000fc000000fc000000fc000000fc0000005d
:1013a000fd000000fd000000fd000000fd00000049
:1013b000fd000000fe000000fe000000fe00000036
:1013c000fe000000fe000000fe000000fe00000025
:1013d000fe000000fe000000fe000000fe00000015
:1013e000fe000000fe000000fe000000fd00000006
:1013f000fd000000fd000000fd000000fd000000f9
:10140000fc000000fc000000fc000000fc000000ec
:10141000fb000000fb000000fb000000fa000000e1
:10142000fa000000fa000000f9000000f9000000d6
:10143000f8000000f8000000f7000000f7000000ce
:10144000f6000000f6000000f5000000f5000000c6
:10145000f4000000f3000000f3000000f2000000c0
:10146000f1000000f1000000f0000000ef000000bb
:10147000ef000000ee000000ed000000ec000000b6
:10148000eb000000eb000000ea000000e9000000b3
:10149000e8000000e7000000e6000000e5000000b2
:1014a000e4000000e3000000e2000000e1000000b2
:1014b000e0000000df000000de000000dd000000b2
:1014c000dc000000db000000da000000d9000000b2
:1014d000d8000000d7000000d6000000d5000000b2
:1014e000d3000000d2000000d1000000d0000000b6
:1014f000cf000000cd000000cc000000cb000000b9
:10150000ca000000c8000000c7000000c6000000bc
:10151000c4000000c3000000c2000000c1000000c1
:10152000bf000000be000000bc000000bb000000c7
:10153000ba000000b8000000b7000000b5000000cd
:10154000b4000000b3000000b1000000b0000000d3
:10155000ae000000ad000000ab000000aa000000db
:10156000a8000000a7000000a6000000a4000000e2
:10157000a3000000a10000009f0000009e000000ea
:101580009c0000009b0000009900000098000000f3
:1015900096000000950000009300000092000000fb
:1015a000900000008f0000008d0000008b00000004
:1015b0008a0000008800000087000000850000000d
:1015c0008400000082000000810000007f00000015
:1015d0007d0000007c0000007a000000790000001f
:1015e0007700000076000000740000007300000027
:1015f000710000006f0000006e0000006c00000031
:101600006b00000069000000680000006600000038
:101610006500000063000000620000006000000040
:101620005f0000005d0000005b0000005a00000049
:101630005800000057000000560000005400000051
:101640005300000051000000500000004e00000058
:101650004d0000004b0000004a000000490000005f
:101660004700000046000000440000004300000066
:1016700042000000400000003f0000003d0000006c
:101680003c0000003b0000003a0000003800000071
:101690003700000036000000340000003300000076
:1016a00032000000310000002f0000002e0000007a
:1016b0002d0000002c0000002b000000290000007d
:1016c0002800000027000000260000002500000080
:1016d0002400000023000000220000002100000080
:1016e000200000001f0000001e0000001d00000080
:1016f0001c0000001b0000001a0000001900000080
:10170000180000001700000016000000150000007f
:10171000140000001300000013000000120000007d
:1017200011000000100000000f0000000f0000007a
:101730000e0000000d0000000d0000000c00000075
:101740000b0000000b0000000a0000000900000070
:101750000900000008000000080000000700000069
:101760000700000006000000060000000500000061
:101770000500000004000000040000000400000058
:10178000030000000300000003000000020000004e
:101790000200000002000000020000000100000042
:1017a0000100000001000000010000000100000035
:1017b0000000000000000000000000000000000029
:1017c0000000000000000000000000000000000019
:1017d0000000000000000000000000000000000009
:1017e00000000000000000000100000001000000f7
:1017f00001000000010000000100000002000000e4
:1018000002000000020000000200000003000000cf
:1018100003000000030000000400000004000000ba
:1018200004000000050000000500000006000000a4
:10183000060000000700000007000000080000008c
:101840000800000009000000090000000a00000074
:101850000b0000000b0000000c0000000d00000059
:101860000d0000000e0000000f0000000f0000003f
:101870001000000011000000120000001300000022
:101880001300000014000000150000001600000006
:101890001700000018000000190000001a000000e6
:1018a0001b0000001c0000001d0000001e000000c6
:1018b0001f000000200000002100000022000000a6
:1018c0002300000024000000250000002600000086
:1018d0002700000028000000290000002b00000065
:1018e0002c0000002d0000002e0000002f00000042
:1018f000310000003200000033000000340000001e
:101900003600000037000000380000003a000000f8
:101910003b0000003c0000003d0000003f000000d4
:1019200040000000420000004300000044000000ae
:101930004600000047000000490000004a00000087
:101940004b0000004d0000004e0000005000000061
:101950005100000053000000540000005600000039
:1019600057000000580000005a0000005b00000013
:101970005d0000005f0000006000000062000000e9
:1019800063000000650000006600000068000000c1
:10199000690000006b0000006c0000006e00000099
:1019a0006f00000071000000730000007400000070
:1019b0007600000077000000790000007a00000047
:0819c0007c0000007d00000026
:020000040000fa
:1019c800000000000000000000000000000000000f
:1019d80000000000000000000000000000000000ff
:1019e80000000000000000000000000000000000ef
:1019f80000000000000000000000000000000000df
:101a080000000000000000000000000000000000ce
:101a180000000000000000000000000000000000be
:101a280000000000000100000202000002020000a5
:101a3800020100000000000000000000000000009b
:101a4800000000000000000000000000000000008e
:101a5800000000000000000000000000000000007e
:101a6800000000000000000000000000010100006c
:101a7800010100000103000003030000030300004c
:101a88000302000001010000020000000000000045
:101a9800000000000000000000000000000000003e
:101aa800000000000000000000000000000000002e
:101ab8000000000000000000010100000303000016
:101ac80003030000030300000303000003030000f6
:101ad80003030000030300000301000001000000ed
:101ae80000000000000000000001000000000000ed
:101af80000000000000000000000000000000000de
:101b080000000000000100000303000003030000c0
:101b180003030000030300000302000003030000a6
:101b28000303000003030000030300000302000096
:101b38000000000000000000010300000000000099
:101b4800000000000000000000000000000000008d
:101b58000000000000000000000000000303000077
:101b68000303000003030000030300000303000055
:101b78000404000003030000020300000303000044
:101b88000303000000010000030300000000000040
:101b9800000000000000000000000000000000003d
:101ba800000000000000000000000000000100002c
:101bb800010100000303000003030000030200000a
:101bc80004040000020300000202000002020000f8
:101bd80003030000020300000303000000000000ec
:101be80000000000000000000000000000000000ed
:101bf80000000000000000000000000000000000dd
:101c080000000000010300000303000003040000bb
:101c180004040000040200000302000002020000a5
:101c2800020300000303000003030000000000009b
:101c3800000000000000000000000000000000009c
:101c4800000000000000000000000000000000008c
:101c5800000000000002000003030000030400006d
:101c68000404000004040000030200000202000053
:101c7800020200000303000003030000000000004c
:101c8800000000000000000000000000000000004c
:101c9800000000000000000000000000000000003c
:101ca8000000000003030000030300000304000019
:101cb8000402000003030000020200000202000008
:101cc80002020000020300000303000000000000fd
:101cd80000000000000000000000000000000000fc
:101ce80000000000000000000000000002030000e7
:101cf80003030000030300000303000003030000c4
:101d080003030000030200000202000001010000ba
:101d180002020000030300000303000000000000ab
:101d280000000000000000000000000000000000ab
:101d38000000000000000000020200000303000091
:101d48000303000003030000020200000203000076
:101d58000202000002020000030300000303000067
:101d68000302000002020000030300000201000059
:101d7800000000000000000000000000000000005b
:101d8800000000000002000003030000030300003d
:101d98000302000003030000030200000201000028
:101da8000102000002030000030300000202000019
:101db8000202000002030000030300000301000008
:101dc800000000000000000000000000000000000b
:101dd80000000000020300000303000003020000eb
:101de80003030000030200000303000002050000d3
:101df80002030000030300000301000005050000c2
:101e080005020000030300000303000002000000b5
:101e180000000000000000000000000000000000ba
:101e28000002000003030000030300000303000096
:101e38000303000003030000030300000302000083
:101e4800020300000303000001050000050500006f
:101e58000505000003030000030200000200000063
:101e6800000000000000000000000000000000006a
:101e78000003000003030000030300000303000045
:101e88000303000003030000030300000303000032
:101e9800030300000303000001050000050500001e
:101ea8000505000005030000030300000100000011
:101eb800000000000000000000000000000000001a
:101ec8000001000001010000010100000102000002
:101ed80003030000030300000303000002030000e3
:101ee80003030000030300000105000005050000ce
:101ef80005050000060200000203000001000000c2
:101f080000000000000000000000000000000000c9
:101f180000000000000000000000000000010000b8
:101f28000101000003030000030300000303000095
:101f38000203000003030000020100000505000081
:101f48000505000006060000020600000200000069
:101f58000000000000000000000000000000000079
:101f68000000000000000000000000000000000069
:101f78000000000003030000030300000303000047
:101f88000303000002020000020100000505000032
:101f9800050500000602000002040000030200001c
:101fa8000000000000000000000000000000000029
:101fb8000000000000000000000000000000000019
:101fc80001030000030300000303000003030000f3
:101fd80003010000040400000404000001040000e0
:101fe80005050000050400000401000006060000c5
:101ff80002000000000000000000000000000000d7
:1020080000000000000000000000000000010000c7
:1020180003030000030200000303000003030000a1
:102028000404000004040000040400000404000088
:102038000101000004040000040600000606000078
:102048000100000000000000000000000000000087
:102058000000000000000000000000000103000074
:102068000303000003030000030300000303000050
:102078000404000004040000040400000404000038
:10208800040400000404000004060000010000002d
:102098000000000000000000000000000000000038
:1020a8000000000000000000000100000303000021
:1020b8000303000003030000030300000303000000
:1020c80003040000040400000404000004040000e9
:1020d80004040000040400000404000000000000e0
:1020e80000000000000000000000000000000000e8
:1020f80000000000000000000003000003030000cf
:1021080002030000020200000303000003030000b2
:102118000303000004040000040400000404000099
:102128000404000004040000040000000000000093
:102138000000000000000000000000000000000097
:10214800000000000000000000030000030200007f
:10215800000000000000000001030000030300006d
:10216800030300000303000004020000040400004d
:10217800040400000000000000000000000000004f
:102188000000000000000000000000000000000047
:102198000000000000000000000000000000000037
:1021a8000000000000020000030300000303000019
:1021b80003030000030300000303000003030000ff
:1021c8000300000000000000000000000000000004
:1021d80000000000000000000000000000000000f7
:1021e80000000000000000000000000000000000e7
:1021f80000000000000200000303000003040000c8
:1022080004040000040300000303000004010000ac
:1022180001040000000000000101000001000000ae
:1022280000000000000000000000000000000000a6
:102238000000000000000000000000000000000096
:102248000000000001030000030300000404000074
:102258000404000003030000030400000404000059
:102268000504000002010000050100000101000052
:102278000000000000000000000000000000000056
:102288000000000000000000000000000000000046
:102298000000000003030000030400000404000021
:1022a800040200000302000004040000040500000a
:1022b80005050000020200000505000001010000fc
:1022c8000100000000000000000000000000000005
:1022d80000000000000000000000000000000000f6
:1022e80000000000030100000404000002010000d7
:1022f80001050000050500000404000004040000b6
:1023080005040000020200000102000002010000b2
:1023180001000000000000000000000000000000b4
:1023280000000000000000000000000000000000a5
:102338000000000000000000010200000101000090
:10234800010100000505000001040000040400006c
:102358000404000002020000010200000101000064
:102368000100000000000000000000000000000064
:102378000000000000000000000000000000000055
:10238800000000000002000003020000010100003c
:10239800010100000501000005010000040400001f
:1023a8000403000003020000020100000101000014
:1023b8000100000000000000000000000000000014
:1023c8000000000000000000000000000000000005
:1023d80000000000000100000302000001010000ed
:1023e80001010000010100000101000002020000db
:1023f80002010000020200000201000002020000c7
:1024080000000000000000000000000000000000c4
:1024180000000000000000000000000000000000b4
:10242800000000000000000002030000020100009c
:102438000101000001010000020200000203000087
:102448000300000002020000020200000201000076
:102458000000000000000000000000000000000074
:102468000000000000000000000000000000000064
:10247800000000000000000001020000020200004d
:102488000101000001020000020200000303000035
:10249800030000000002000003020000000000002a
:1024a8000000000000000000000000000000000024
:1024b8000000000000000000000000000000000014
:1024c80000000000000000000001000003020000fe
:1024d80002020000020200000305000001030000e0
:1024e80003000000000000000000000000000000e1
:1024f80000000000000000000000000000000000d4
:1025080000000000000000000000000000000000c3
:1025180000000000000000000000000000020000b1
:10252800020200000203000002050000020300008e
:102538000300000000000000000000000000000090
:102548000000000000000000000000000000000083
:102558000000000000000000000000000000000073
:102568000000000000000000000000000003000060
:10257800030300000201000005050000020300003b
:102588000300000000000000000000000000000040
:102598000000000000000000000000000000000033
:1025a8000000000000000000000000000000000023
:1025b800000000000000000000000000010300000f
:1025c80003030000020500000505000003030000e6
:1025d80003010000000000000000000000000000ef
:1025e80000000000000000000000000000000000e3
:1025f80000000000000000000000000000000000d3
:1026080000000000000000000001000002010000be
:10261800030300000205000005010000020300009a
:10262800030100000000000000000000000000009e
:102638000000000000000000000000000000000092
:102648000000000000000000000000000000000082
:10265800000000000000000001020000010100006d
:102668000101000001010000020200000101000058
:102678000101000000000000000000000000000050
:102688000000000000000000000000000000000042
:102698000000000000000000000000000000000032
:1026a800000000000000000001030000020200001a
:1026b8000101000001020000020200000101000007
:1026c80001020000020000000000000000000000fd
:1026d80000000000000000000000000000000000f2
:1026e80000000000000000000000000000000000e2
:1026f80000000000000000000106000006060000bf
:10270800060600000606000007020000010100009e
:102718000703000007070000070000000000000092
:1027280000000000000000000000000000000000a1
:102738000000000000000000000000000000000091
:10274800000000000000000002060000070700006b
:10275800070700000702000006020000020200004e
:102768000607000007070000070100000107000036
:102778000000000000000000000000000000000051
:102788000000000000000000000000000000000041
:102798000000000000060000060700000105000018
:1027a80005050000050500000707000007060000f2
:1027b80007070000070700000101000001070000eb
:1027c80007000000000000000000000000000000fa
:1027d80000000000000000000000000000000000f1
:1027e80000000000000600000701000007070000c5
:1027f800070700000707000005070000060700009c
:10280800070700000201000001010000070700009f
:10281800070700000700000000000000000000009b
:1028280000000000000000000000000000000000a0
:10283800000000000006000007070000070700006e
:10284800070700000107000007070000060700004f
:102858000707000002010000010700000707000049
:102868000707000001070000070000000000000043
:102878000000000000000000000000000000000050
:10288800000000000006000007070000070700001e
:1028980007070000070700000707000006070000f9
:1028a80007020000020200000107000007070000fd
:1028b80007070000070700000700000000000000ed
:1028c8000000000000000000000000000000000000
:1028d80000000000000600000607000007070000cf
:1028e80007070000070700000706000006070000aa
:1028f80007020000020200000207000007070000ac
:10290800070700000707000007070000070000008e
:1029180000000000000000000000000000000000af
:102928000000000000000000060600000606000087
:10293800060600000606000006060000060600005f
:10294800060600000606000006060000060600004f
:102958000606000006060000060600000600000045
:10296800000000000000000000000000000000005f
:10297800000000000000000000000000000000004f
:10298800000000000000000000000000000000003f
:10299800000000000000000000000000000000002f
:1029a800000000000000000000000000000000001f
:1029b800000000000000000000000000000000000f
:1029c80000000000000000000000000000000000ff
:1029d80000000000000000000000000000000000ef
:1029e80000000000000000000000000000000000df
:1029f80000000000000000000000000000000000cf
:102a080000000000000000000000000000000000be
:102a180000000000000000000000000000000000ae
:102a2800000000000000000000000000000000009e
:102a3800000000000000000000000000000000008e
:102a4800000000000000000000000000000000007e
:102a5800000000000000000000000000000000006e
:102a6800000000000000000000000000000000005e
:102a7800000000000000000000000000000000004e
:102a8800000000000000000000000000000000003e
:102a9800000000000000000000000000000000002e
:102aa800000000000000000000000000000000001e
:102ab800000000000000000001000000000000000d
:102ac80000000000000000000000000000000000fe
:102ad80000000000000000000000000000000000ee
:102ae80000000000000000000000000000000000de
:102af80000000000000000000000000000000000ce
:102b080000000000000000000000000000000000bd
:102b180000000000000000000000000000000000ad
:102b2800000000000000000000000000000000009d
:102b3800000000000000000000000000000000008d
:102b4800000000000000000000000000000000007d
:102b5800000000000000000000000000000000006d
:102b6800000000000000000000000000000000005d
:102b7800000000000000000000000000000000004d
:102b8800000000000000000000000000000000003d
:102b9800000000000000000000000000000000002d
:102ba800000000000000000000000000000000001d
:102bb800000000000000000000000000000000000d
:102bc80000000000000000000000000000000000fd
:102bd80000000000000000000000000000000000ed
:102be80000000000000000000000000000000000dd
:102bf80000000000000000000000000000000000cd
:102c080000000000000000000000000000000000bc
:102c180000000000000000000000000000000000ac
:102c2800000000000000000000000000000000009c
:102c38000000000000010000010100000000000089
:102c4800000000000000000000000000000000007c
:102c5800000000000000000000000000000000006c
:102c6800020000000000000000000000000000005a
:102c7800000000000000000000000000000000004c
:102c8800000000000000000000000000000000003c
:102c9800000000000000000000000000000000002c
:102ca800000000000000000000000000000000001c
:102cb800000000000000000000000000000000000c
:102cc80000000000000000000000000000000000fc
:102cd80000000000000000000000000000000000ec
:102ce80000000000000000000000000000000000dc
:102cf80000000000000000000000000000000000cc
:102d080000000000000000000000000000000000bb
:102d180000000000000000000000000000000000ab
:102d2800000000000000000000000000000000009b
:102d3800000000000000000000000000000000008b
:102d4800000000000000000000000000000000007b
:102d5800000000000000000000000000000000006b
:102d6800000000000000000000000000000000005b
:102d7800000000000000000000000000000000004b
:102d8800000000000000000000000000000000003b
:102d9800000000000000000000000000000000002b
:102da8000000000000000000000000000101000019
:102db800000000000001000000000000000000000a
:102dc80000000000000000000000000000000000fb
:102dd80000000000000000000202000000000000e7
:102de80000000000000000000000000000000000db
:102df80001010000000000000000000000000000c9
:102e080000000000000000000000000000000000ba
:102e180000000000000000000000000000000000aa
:102e2800000000000000000000000000000000009a
:102e3800000000000000000000000000000000008a
:102e4800000000000000000000000000000000007a
:102e5800000000000000000000000000000000006a
:102e6800000000000000000000000000000000005a
:102e7800000000000000000000000000000000004a
:102e8800000000000000000000000000000000003a
:102e9800000000000000000000000000000000002a
:102ea800000000000000000000000000000000001a
:102eb800000000000000000000000000000000000a
:102ec80000000000000000000000000000000000fa
:102ed80000000000000000000000000000000000ea
:102ee80000000000000000000000000000000000da
:102ef80000000000000000000000000000000000ca
:102f080000000000000000000000000000000000b9
:102f180000000000000000000001000000000000a8
:102f28000000000000000000000000000000000099
:102f38000101000001010000000100000101000082
:102f48000100000000000000000000000000000078
:102f58000101000001010000000100000101000062
:102f68000101000001010000010100000000000053
:102f78000000000000000000000000000100000048
:102f88000000000000000000000000000000000039
:102f98000000000000000000000000000000000029
:102fa8000000000000000000000000000000000019
:102fb8000000000000000000000000000000000009
:102fc80000000000000000000000000000000000f9
:102fd80000000000000000000000000000000000e9
:102fe80000000000000000000000000000000000d9
:102ff80000000000000000000000000000000000c9
:1030080000000000000000000000000000000000b8
:1030180000000000000000000000000000000000a8
:103028000000000000000000000000000000000098
:103038000000000000000000000000000000000088
:103048000000000000000000000000000000000078
:103058000000000000000000000000000000000068
:103068000000000000000000000000000000000058
:103078000000000000000000000000000000000048
:103088000000000000000000000000000000000038
:103098000000000000000000000000000000000028
:1030a8000000000000000000000100000000000017
:1030b8000000000000000000010000000000000007
:1030c80001010000030100000301000001010000ec
:1030d80001010000010100000000000001000000e3
:1030e80000000000040400000404000004040000c0
:1030f80004040000020000000001000001010000bb
:1031080000000000000000000001000001010000b4
:1031180000000000000000000000000000000000a7
:103128000000000000000000000000000000000097
:103138000000000000000000000000000000000087
:103148000000000000000000000000000000000077
:103158000000000000000000000000000000000067
:103168000000000000000000000000000000000057
:103178000000000000000000000000000000000047
:103188000000000000000000000000000000000037
:103198000000000000000000000000000000000027
:1031a8000000000000000000000000000000000017
:1031b8000000000000000000000000000000000007
:1031c80000000000000000000000000000000000f7
:1031d80000000000000000000000000000000000e7
:1031e80000000000000000000000000000000000d7
:1031f80000000000000000000000000000000000c7
:1032080000000000000000000000000000000000b6
:1032180000000000000000000000000000000000a6
:103228000000000000000000000000000000000096
:103238000000000000010000010000000000000084
:103248000000000000000000010100000103000070
:103258000103000001030000010100000303000056
:103268000101000001000000010100000000000051
:103278000000000005060000060600000706000022
:103288000706000006060000060400000604000009
:10329800020200000200000002000000000000001e
:1032a8000000000000000000000000000000000016
:1032b8000000000000000000000000000000000006
:1032c80000000000000000000000000000000000f6
:1032d80000000000000000000000000000000000e6
:1032e80000000000000000000000000000000000d6
:1032f80000000000000000000000000000000000c6
:1033080000000000000000000000000000000000b5
:1033180000000000000000000000000000000000a5
:103328000000000000000000000000000000000095
:103338000000000000000000000000000000000085
:103348000000000000000000000000000000000075
:103358000000000000000000000000000000000065
:103368000000000000000000000000000000000055
:103378000000000000000000000000000000000045
:103388000000000000000000000000000000000035
:103398000000000000000000000000000000000025
:1033a8000000000000000000000000000000000015
:1033b8000000000000000000000000000002000003
:1033c80000010000000000000202000002000000ee
:1033d80003000000010100000303000003010000d6
:1033e80003010000030100000301000001010000c7
:1033f80001010000000000000100000000000000c2
:10340800000000000204000008080000080800008e
:103418000808000008070000080800000707000067
:10342800060600000606000004040000040200006e
:103438000000000000000000010000000000000083
:103448000000000000000000000000000000000074
:103458000000000000000000000000000000000064
:103468000000000000000000000000000000000054
:103478000000000000000000000000000000000044
:103488000000000000000000000000000000000034
:103498000000000000000000000000000000000024
:1034a8000000000000000000000000000000000014
:1034b8000000000000000000000000000000000004
:1034c80000000000000000000000000000000000f4
:1034d80000000000000000000000000000000000e4
:1034e80000000000000000000000000000000000d4
:1034f80000000000000000000000000000000000c4
:1035080000000000000000000000000000000000b3
:1035180000000000000000000000000000000000a3
:103528000000000000000000000000000000000093
:103538000000000000000000000000000000000083
:103548000000000000000000000000000101000071
:103558000000000000040000090700000404000047
:103568000201000003030000010300000103000042
:103578000103000001030000030100000103000033
:103588000101000000000000010000000000000030
:103598000000000002050000060600000607000003
:1035a80006060000060700000708000008080000db
:1035b80008080000080700000707000007060000c9
:1035c80009040000020000000000000000010000e3
:1035d80000000000000000000000000000000000e3
:1035e80000000000000000000000000000000000d3
:1035f80000000000000000000000000000000000c3
:1036080000000000000000000000000000000000b2
:1036180000000000000000000000000000000000a2
:103628000000000000000000000000000000000092
:103638000000000000000000000000000000000082
:103648000000000000000000000000000000000072
:103658000000000000000000000000000000000062
:103668000000000000000000000000000000000052
:103678000000000000000000000000000000000042
:103688000000000000000000000000000000000032
:103698000000000000000000000000000000000022
:1036a8000000000000000000000000000101000010
:1036b8000101000000000000000000000000000000
:1036c80000000000000000000000000000000000f2
:1036d80000000000010100000000000002000000de
:1036e80004040000060700000704000003030000ac
:1036f80003030000030300000301000003010000ae
:1037080003010000030100000101000001010000a5
:10371800010100000100000000000000000000009e
:10372800020200000205000009060000060600006b
:10373800060600000606000006060000070700004f
:103748000407000008070000070800000808000038
:10375800080600000606000009040000000000003a
:10376800000100000100000000000000010000004e
:103778000000000000000000000000000000000041
:103788000000000000000000000000000000000031
:103798000000000000000000000000000000000021
:1037a8000000000000000000000000000000000011
:1037b8000000000000000000000000000000000001
:1037c80000000000000000000000000000000000f1
:1037d80000000000000000000000000000000000e1
:1037e80000000000000000000000000000000000d1
:1037f80000000000000000000000000000000000c1
:1038080000000000000000000000000000000000b0
:1038180000000000000000000000000000000000a0
:103828000000000000000000000000000000000090
:103838000000000000000000000000000000000080
:103848000000000000000000000000000000000070
:10385800000000000001000000010000000000005e
:103868000101000000020000030400000606000039
:1038780007080000080a0000030100000303000015
:10388800030300000303000003010000030100001c
:103898000303000001030000010100000301000010
:1038a800010100000000000000000000000000000e
:1038b80002020000020200000906000006060000dd
:1038c80006060000040300000704000001000000d1
:1038d80002090000060600000706000006070000af
:1038e8000808000008080000070600000609000094
:1038f80002000000000100000000000000000000bd
:1039080000000000000000000000000000000000af
:10391800000000000000000000000000000000009f
:10392800000000000000000000000000000000008f
:10393800000000000000000000000000000000007f
:10394800000000000000000000000000000000006f
:10395800000000000000000000000000000000005f
:10396800000000000000000000000000000000004f
:10397800000000000000000000000000000000003f
:10398800000000000000000000000000000000002f
:10399800000000000000000000000000000000001f
:1039a800000000000000000000000000000000000f
:1039b80000000000000000000000000000000000ff
:1039c80000000000000000000000000000000000ef
:1039d80000000000000000000000000000000000df
:1039e80001010000000000000000000001000000cc
:1039f8000202000006060000070800000808000090
:103a08000807000002000000010300000103000095
:103a1800010300000103000003030000010300008c
:103a28000101000003010000030100000101000082
:103a3800010000000000000000000000000000007d
:103a4800020200000205000006060000060600004b
:103a5800060700000100000000000000000100004f
:103a68000103000004090000040600000606000027
:103a78000606000007080000080800000807000004
:103a8800060600000402000000010000010000001a
:103a9800010100000000000000000000000000001c
:103aa800000000000000000000000000000000000e
:103ab80000000000000000000000000000000000fe
:103ac80000000000000000000000000000000000ee
:103ad80000000000000000000000000000000000de
:103ae80000000000000000000000000000000000ce
:103af80000000000000000000000000000000000be
:103b080000000000000000000000000000000000ad
:103b1800000000000000000000000000000000009d
:103b2800000000000000000000000000000000008d
:103b3800000000000000000000000000000000007d
:103b4800000000000000000000000000000000006d
:103b58000000000000000000000100000301000058
:103b68000103000001030000010100000000000043
:103b78000000000000000000000200000406000031
:103b880007070000080800000808000007080000f0
:103b98000400000003030000030300000303000007
:103ba80003030000030300000301000003010000f9
:103bb80003030000010300000101000003010000ed
:103bc80001000000000000000000000000000000ec
:103bd80002020000020200000409000009050000ba
:103be80005020000000000000101000002000000c2
:103bf800010100000005000006060000060600009e
:103c08000606000006060000070700000808000076
:103c1800080600000606000004020000000000007c
:103c2800000100000000000000000000000000008b
:103c3800000000000000000000000000000000007c
:103c4800000000000000000000000000000000006c
:103c5800000000000000000000000000000000005c
:103c6800000000000000000000000000000000004c
:103c7800000000000000000000000000000000003c
:103c8800000000000000000000000000000000002c
:103c9800000000000000000000000000000000001c
:103ca800000000000000000000000000000000000c
:103cb80000000000000000000000000000000000fc
:103cc80000000000000000000000000000000000ec
:103cd80000000000000000000000000000000000dc
:103ce80000000000010300000303000003030000bc
:103cf80003030000030100000303000001010000aa
:103d0800000000000004000004070000070700008e
:103d18000808000008070000040200000402000070
:103d28000303000003030000030300000303000073
:103d38000303000003030000010300000103000067
:103d4800010300000103000001010000010100005f
:103d58000101000000000000000000000002000057
:103d6800020500000202000005050000050500002c
:103d78000505000005020000000100000000000029
:103d88000002000004070000060600000606000006
:103d980007060000060600000606000006060000ea
:103da80007080000080600000606000004050000d9
:103db80000010000000000000000000000000000fa
:103dc80000000000000000000000000000000000eb
:103dd80000000000000000000000000000000000db
:103de80000000000000000000000000000000000cb
:103df80000000000000000000000000000000000bb
:103e080000000000000000000000000000000000aa
:103e1800000000000000000000000000000000009a
:103e2800000000000000000000000000000000008a
:103e3800000000000000000000000000000000007a
:103e4800000000000000000000000000000000006a
:103e5800000000000000000000000000000000005a
:103e6800000000000000000000000000000000004a
:103e7800000000000103000003030000030300002a
:103e88000303000003030000030100000303000014
:103e980000000000010300000707000008080000f8
:103ea80006070000060600000000000001030000ed
:103eb80003030000030300000303000003010000e4
:103ec80003010000030300000301000003010000d8
:103ed80003010000030100000103000001030000ca
:103ee80001000000000000000000000001000000c8
:103ef8000202000005050000050500000505000098
:103f08000505000005050000020100000000000092
:103f1800000900000606000006060000060600006c
:103f28000606000006060000060600000606000059
:103f38000606000008080000080600000606000043
:103f48000400000000000000000000000000000065
:103f58000000000000000000000000000000000059
:103f68000000000000000000000000000000000049
:103f78000000000000000000000000000000000039
:103f88000000000000000000000000000000000029
:103f98000000000000000000000000000000000019
:103fa8000000000000000000000000000000000009
:103fb80000000000000000000000000000000000f9
:103fc80000000000000000000000000000000000e9
:103fd80000000000000000000000000000000000d9
:103fe80000000000000000000000000000000000c9
:103ff80000000000000000000000000000000000b9
:104008000001000002030000030300000303000096
:104018000303000003030000030300000101000084
:104028000303000001010000000000000407000075
:10403800070400000400000001030000030300005f
:104048000303000003030000030300000303000050
:104058000303000001030000030300000103000044
:10406800010300000103000001010000010100003c
:104078000100000000000000000000000002000035
:104088000202000005050000050500000505000006
:1040980005050000050500000202000004040000f8
:1040a80007060000060600000606000006060000d7
:1040b80006060000060600000606000006060000c8
:1040c80006060000060600000708000008070000b2
:1040d80006060000040000000101000000000000c6
:1040e80000000000000000000000000000000000c8
:1040f80000000000000000000000000000000000b8
:1041080000000000000000000000000000000000a7
:104118000000000000000000000000000000000097
:104128000000000000000000000000000000000087
:104138000000000000000000000000000000000077
:104148000000000000000000000000000000000067
:104158000000000000000000000000000000000057
:104168000000000000000000000000000000000047
:104178000000000000000000000000000000000037
:104188000000000000000000000000000000000027
:104198000000000001020000030a00000303000001
:1041a80003030000030300000303000003030000ef
:1041b80003010000030100000101000001010000eb
:1041c80000010000010300000303000003030000d6
:1041d80003030000030300000303000003030000bf
:1041e80003030000030300000301000003010000b3
:1041f80003010000030100000101000001010000ab
:1042080001000000000000000000000000010000a4
:104218000205000005050000050500000505000071
:10422800050500000505000005050000060600005c
:104238000606000006060000060600000606000046
:10424800060600000606000006060000060a000032
:104258000208000006070000070600000808000022
:10426800080600000604000000000000000000002e
:104278000101000000000000000000000000000034
:104288000000000000000000000000000000000026
:104298000000000000000000000000000000000016
:1042a8000000000000000000000000000000000006
:1042b80000000000000000000000000000000000f6
:1042c80000000000000000000000000000000000e6
:1042d80000000000000000000000000000000000d6
:1042e80000000000000000000000000000000000c6
:1042f80000000000000000000000000000000000b6
:1043080000000000000000000000000000000000a5
:104318000000000000000000000000000000000095
:104328000000000001010000000a0000080a000067
:10433800030300000303000003030000030300005d
:104348000103000001030000010100000101000059
:104358000100000003030000030300000303000042
:10436800030300000303000003030000030300002d
:104378000303000003030000010300000103000021
:104388000103000001030000010300000101000017
:104398000100000000010000000000000000000013
:1043a80002020000050500000505000005050000e3
:1043b80005050000050500000505000009060000c8
:1043c80006060000060600000606000006060000b5
:1043d80006060000060600000606000004010000ac
:1043e80000020000040100000102000006070000ae
:1043f800080800000606000006040000000000008f
:1044080000000000000100000000000000000000a3
:104418000000000000000000000000000000000094
:104428000000000000000000000000000000000084
:104438000000000000000000000000000000000074
:104448000000000000000000000000000000000064
:104458000000000000000000000000000000000054
:104468000000000000000000000000000000000044
:104478000000000000000000000000000000000034
:104488000000000000000000000000000000000024
:104498000000000000000000000000000000000014
:1044a8000000000000000000000000000000000004
:1044b800000000000000000001010000030a0000e5
:1044c8000a030000030300000303000003030000c5
:1044d80003010000030100000301000001010000c6
:1044e80001010000030300000303000003030000b0
:1044f800030300000303000003030000030300009c
:104508000303000001030000030100000301000091
:104518000301000003010000010100000301000085
:10452800010100000100000000000000000100007f
:104538000002000005050000050500000505000053
:10454800050500000505000005050000040600003b
:104558000606000006060000060600000606000023
:104568000606000006060000060400000100000020
:104578000100000000000000000200000606000024
:1045880006080000080800000606000004000000f5
:104598000000000000010000000000000000000012
:1045a8000000000000000000000000000000000003
:1045b80000000000000000000000000000000000f3
:1045c80000000000000000000000000000000000e3
:1045d80000000000000000000000000000000000d3
:1045e80000000000000000000000000000000000c3
:1045f80000000000000000000000000000000000b3
:1046080000000000000000000000000000000000a2
:104618000000000000000000000000000000000092
:104628000000000000000000000000000000000082
:104638000000000000000000000000000000000072
:10464800010100000000000000020000010a000053
:104658000a0a00000303000003030000030300002c
:10466800030300000303000001030000030100002e
:10467800030300000303000003030000030300001a
:10468800030300000303000003030000030300000a
:1046980003030000030300000303000003010000fc
:1046a80001030000010300000303000003030000ee
:1046b80003030000030100000100000000000000e7
:1046c80000000000050500000505000005050000c4
:1046d80005050000050500000505000006070000a7
:1046e8000707000006060000060600000606000090
:1046f8000606000006060000040000000000000096
:104708000100000000000000000300000404000095
:10471800060600000708000008070000060600005b
:104728000000000000000000000000000000000081
:104738000000000000000000000000000000000071
:104748000000000000000000000000000000000061
:104758000000000000000000000000000000000051
:104768000000000000000000000000000000000041
:104778000000000000000000000000000000000031
:104788000000000000000000000000000000000021
:104798000000000000000000000000000000000011
:1047a8000000000000000000000000000000000001
:1047b80000000000000000000000000000000000f1
:1047c80000000000000000000000000000000000e1
:1047d80001010000000200000904000000000000c0
:1047e800030a0000030300000303000003030000a2
:1047f800030300000303000003030000010100009d
:104808000303000003030000030300000303000088
:104818000303000003030000030300000303000078
:10482800030300000303000003010000010100006e
:10483800030100000303000003030000030300005a
:104848000303000003030000010100000000000052
:104858000000000000000000000200000505000044
:104868000505000005050000050500000507000016
:1048780008080000070600000606000006060000fb
:104888000606000006060000030000000000000005
:10489800000000000200000000000000000400000a
:1048a80006060000060600000708000006060000cd
:1048b80004000000010000000000000000000000eb
:1048c80000000000000000000000000000000000e0
:1048d80000000000000000000000000000000000d0
:1048e80000000000000000000000000000000000c0
:1048f80000000000000000000000000000000000b0
:10490800000000000000000000000000000000009f
:10491800000000000000000000000000000000008f
:10492800000000000000000000000000000000007f
:10493800000000000000000000000000000000006f
:10494800000000000000000000000000000000005f
:10495800000000000000000000000000010000004e
:104968000002000002070000070800000a0000001b
:10497800000300000303000003030000030300001a
:104988000303000003030000030100000303000009
:1049980003030000030300000303000003030000f7
:1049a80003030000030300000303000003030000e7
:1049b80003030000030300000303000003030000d7
:1049c80003030000030300000303000003030000c7
:1049d80003030000030300000001000000000000c2
:1049e80000010000010000000000000000000000bd
:1049f8000202000005050000050500000509000089
:104a0800070600000706000006060000060600006c
:104a180006060000060600000a000000020000006a
:104a28000001000001000000020400000706000069
:104a3800060600000606000006070000080700003a
:104a48000607000000000000000000000000000051
:104a5800000000000000000000000000000000004e
:104a6800000000000000000000000000000000003e
:104a7800000000000000000000000000000000002e
:104a8800000000000000000000000000000000001e
:104a9800000000000000000000000000000000000e
:104aa80000000000000000000000000000000000fe
:104ab80000000000000000000000000000000000ee
:104ac80000000000000000000000000000000000de
:104ad80000000000000000000000000000000000ce
:104ae80000000000000000000001000001000000bc
:104af800020700000607000008080000070400007d
:104b0800000100000303000003030000030300008a
:104b18000303000003030000030300000303000075
:104b28000303000003030000030300000303000065
:104b38000303000003030000030300000303000055
:104b48000303000003010000030100000303000049
:104b58000303000003030000030300000303000035
:104b68000a0a000003020000020000000002000020
:104b7800000100000100000000000000010000002a
:104b88000000000000050000050500000505000004
:104b980006060000060600000606000006060000dd
:104ba80006060000060600000604000002020000d7
:104bb80003020000020400000606000006060000ca
:104bc80006060000060600000606000007070000ab
:104bd80006060000060000000000000000000000bb
:104be80000000000000000000000000000000000bd
:104bf80000000000000000000000000000000000ad
:104c0800000000000000000000000000000000009c
:104c1800000000000000000000000000000000008c
:104c2800000000000000000000000000000000007c
:104c3800000000000000000000000000000000006c
:104c4800000000000000000000000000000000005c
:104c5800000000000000000000000000000000004c
:104c6800000000000000000000010000000000003b
:104c78000000000000000000010000000004000027
:104c88000607000008080000070200000a020000ea
:104c980000010000010300000303000003030000fb
:104ca80003030000030300000303000003030000e4
:104cb80003030000030300000303000003030000d4
:104cc80003030000030300000303000003030000c4
:104cd80003030000030300000303000003030000b4
:104ce800030300000303000003030000030a00009d
:104cf8000a0200000505000005020000000000008f
:104d0800000000000000000000000000000000009b
:104d1800000000000000000000020000050500007f
:104d28000906000006060000060600000606000048
:104d3800060600000606000006060000070600003a
:104d4800060600000606000006060000060600002b
:104d5800060600000606000006060000060600001b
:104d68000606000006070000000000000101000020
:104d7800010000000000000000000000000000002a
:104d8800000000000000000000000000000000001b
:104d9800000000000000000000000000000000000b
:104da80000000000000000000000000000000000fb
:104db80000000000000000000000000000000000eb
:104dc80000000000000000000000000000000000db
:104dd80000000000000000000000000000000000cb
:104de80000000000000000000000000000000000bb
:104df80000000000000000000100000000000000aa
:104e0800000000000000000000020000060700008b
:104e18000808000006060000070000000002000065
:104e28000201000001010000030300000303000069
:104e38000303000003030000030300000303000052
:104e48000303000003030000030300000303000042
:104e58000303000003030000030300000303000032
:104e68000303000003030000030300000303000022
:104e78000303000003030000030300000302000013
:104e880005050000090500000505000002000000f6
:104e9800000000000000000000000000000000000a
:104ea80000000000000100000102000002050000ef
:104eb80009090000060600000606000006060000b4
:104ec80006060000060600000606000006060000aa
:104ed800060600000606000006060000060600009a
:104ee800060600000606000006060000060600008a
:104ef800060600000606000004020000000100008b
:104f08000100000000000000000000000000000098
:104f18000000000000000000000000000000000089
:104f28000000000000000000000000000000000079
:104f38000000000000000000000000000000000069
:104f48000000000000000000000000000000000059
:104f58000000000000000000000000000000000049
:104f68000000000000000000000000000000000039
:104f78000000000000000000000000000000000029
:104f88000000000000000000000000000001000018
:104f980000000000010000000406000007080000ef
:104fa80008060000060600000400000001000000da
:104fb80000010000010100000103000003030000dc
:104fc80003030000030300000303000003030000c1
:104fd80003030000030300000303000003030000b1
:104fe80003030000030300000303000003030000a1
:104ff8000303000003030000030300000303000091
:10500800030300000303000003030000020500007f
:105018000505000005050000090500000202000062
:105028000000000000000000000000000000000078
:105038000100000000010000010000000202000061
:105048000509000006060000060600000606000026
:105058000606000006060000060600000606000018
:105068000606000006060000060600000606000008
:1050780006060000060600000606000006060000f8
:1050880006060000060600000604000000010000f5
:105098000000000000000000000000000000000008
:1050a80000000000000000000000000000000000f8
:1050b80000000000000000000000000000000000e8
:1050c80000000000000000000000000000000000d8
:1050d80000000000000000000000000000000000c8
:1050e80000000000000000000000000000000000b8
:1050f80000000000000000000000000000000000a8
:105108000000000000000000000000000000000097
:105118000000000000000000000000000100000086
:105128000000000002060000070800000807000051
:10513800060600000a00000002010000010000004d
:105148000100000000030000010300000303000049
:10515800030300000303000003030000030300002f
:10516800030300000303000003030000030300001f
:10517800030300000303000003030000030300000f
:1051880003030000030300000303000003030000ff
:1051980003030000030300000202000005050000ed
:1051a80009050000050500000505000005000000d0
:1051b80000000000010000000000000001000000e5
:1051c80000000000000000000000000002020000d3
:1051d8000505000009060000060900000609000090
:1051e8000606000006060000060600000606000087
:1051f8000606000006060000060600000606000077
:105208000606000006060000060700000606000065
:10521800060600000706000006060000030000005e
:105228000000000001000000000000000000000075
:105238000000000000000000000000000000000066
:105248000000000000000000000000000000000056
:105258000000000000000000000000000000000046
:105268000000000000000000000000000000000036
:105278000000000000000000000000000000000026
:105288000000000000000000000000000000000016
:105298000000000000000000000000000000000006
:1052a80000000000000000000000000000010000f5
:1052b80000040000060700000808000006060000b9
:1052c80006070000030400000000000000000000c2
:1052d80000020000020100000103000003030000b7
:1052e800030300000303000003030000030300009e
:1052f80003030000030300000a0300000303000087
:10530800030300000303000003030000030300007d
:10531800030300000303000003030000030300006d
:105328000303000003010000050500000905000053
:10533800050500000509000005050000050000003e
:105348000100000000000000000000000000000054
:105358000202000002020000020200000202000035
:105368000205000005090000060600000606000008
:1053780006090000060600000606000006060000f2
:1053880006060000060600000606000006060000e5
